:03000000020008F3
:0300610002000397
:050003001200D080FE98
:0E006400AF8290E6787480F090E67974A0F098
:0D00720090E678E0FE30E0F890E679EFF0DF
:0E007F0090E678E0FF30E0F890E678E0FF20B1
:06008D00E104758203226C
:0600930090E679E508F09B
:0E00990090E678E0FF30E0F890E6787440F0F2
:0900A700E0FF20E104758204224F
:0C00B00090E6787480F090E67974A0F07F
:0E00BC0090E678E0FF30E0F890E678E0FF3064
:0600CA00E1E47582002252
:0C00D00090E67A7401F07508C07582009B
:0A00DC0012006475082575820112F8
:0900E6000064750809758202121C
:0900EF000064750881758203129A
:0900F800006475083875820412D9
:0901010000647508007582051206
:09010A00006475080075820612FC
:09011300006475080075820712F2
:02011C0000647D
:02011E0080FE61
:06003700E478FFF6D8FD9D
:080015007900E94400601B7A48
:05001D000090012478B1
:030022000075A0C6
:0A00250000E493F2A308B8000205FE
:08002F00A0D9F4DAF275A0FF7C
:08003D007800E84400600A7934
:030045000075A0A3
:0600480000E4F309D8FCFE
:08004E007800E84400600C7921
:0B00560000900000E4F0A3D8FCD9FAF1
:03000800758108F7
:0A000B00120120E5826003020003E9
:0401200075820022C2
:00000001FF
